:100000000C942A000C9491000C9447000C94470027
:100010000C9447000C9447000C9447000C94470044
:100020000C9447000C9447000C9447000C94470034
:100030000C9447000C94DF000C9409010C944700C9
:100040000C9447000C9447000C9447000C94470014
:100050000C94470011241FBECFE5D8E0DEBFCDBF12
:1000600010E0A0E6B0E0E8E3F6E002C005900D92F3
:10007000A63FB107D9F711E0A6EFB0E001C01D928D
:10008000A739B107E1F70E94A3000C941A030C945E
:1000900000008AB386608ABB8BB3897F8BBBDA9AF8
:1000A000089520E030E044E650E0D99A80EA9FE0ED
:1000B000FA013197F1F70197D9F7D99880EA9FE0D3
:1000C000FA013197F1F70197D9F72F5F3F4F2630AB
:1000D000310559F7089580913C01882319F40E9455
:1000E00051000895D99A80E395E724E630E0F901BC
:1000F0003197F1F70197D9F7D9980895D99A80E304
:1001000095E724E630E0F9013197F1F70197D9F747
:10011000D998089585B7836085BF8BB780648BBFFE
:1001200008951F920F920FB60F9211248F9381E0C2
:100130008093F6008BB78F7B8BBF8F910F900FBE94
:100140000F901F9018958AB386608ABB8BB3897F06
:100150008BBBDA9A78940E948F02D99A80E395E754
:1001600024E630E0F9013197F1F70197D9F7D998F2
:1001700020E030E044E650E00AC0FA013197F1F7A0
:100180000197D9F72F5F3F4F2C33310519F080E2EB
:100190009EE4F3CF85B7836085BF8BB780648BBF48
:1001A0008091F6008130E1F71092F6000E94510034
:1001B00060E670E085E890E00E943602F1CF1F9281
:1001C0000F920FB60F9211242F938F939F93EF935B
:1001D000FF939BB12CB1E0913901EF5FEF718091FA
:1001E0003A01E81711F482E008C0892F8871E09382
:1001F0003901F0E0E95EFE4F208380933B01FF91DF
:10020000EF919F918F912F910F900FBE0F901F90A4
:1002100018951F920F920FB60F9211248F939F93F0
:10022000EF93FF939091370180913801981761F017
:10023000E0913801EF5FEF71E0933801F0E0E950B1
:10024000FF4F80818CB901C05598FF91EF919F912C
:100250008F910F900FBE0F901F9018959C011092D8
:100260003701109238011092390110923A0197FF2C
:1002700003C082E08BB93F7730BD29B988E98AB9DC
:1002800086E880BD08959091390180913A019817D0
:1002900019F420E031E012C0E0913A01EF5FEF7114
:1002A000E0933A01F0E0E95EFE4F308120913B019E
:1002B000922F80E0AC01430F511D9A01C9010895AE
:1002C000282F909137019F5F9F7180913801981777
:1002D000E1F3E92FF0E0E950FF4F208390933701DD
:1002E000559A0895DC0111C0909137019F5F9F716D
:1002F000809138019817E1F31196E92FF0E0E95069
:10030000FF4F208390933701559A2C91222361F758
:100310000895AC0110C0209137012F5F2F7180919B
:1003200038012817E1F3E22FF0E0E950FF4F908306
:1003300020933701559AFA014F5F5F4F94919923AB
:1003400051F7089580E395E724E630E0F90131970D
:10035000F1F70197D9F7A69AAE9880E395E724E6DE
:1003600030E0F9013197F1F70197D9F7A698089590
:1003700008958DE00E9460018AE00E946001089566
:100380000F931F938C0163E970E089E791E00E946D
:100390000F0380939701B80189E791E00E940F0352
:1003A0008093970189E791E00E9472010E94B90150
:1003B00088E893E124E630E0F9013197F1F70197FD
:1003C000D9F71F910F9108950E94C00108950E94CE
:1003D00072010E94B90188E893E124E630E0F90156
:1003E0003197F1F70197D9F78AE10E94600181E026
:1003F00008950F931F938C016AE970E089E791E0FB
:100400000E940F0380939701B80189E791E00E9451
:100410000F038093970164EA70E089E791E00E94FE
:100420000F038093970189E791E00E9472010E9477
:10043000B90188E893E124E630E0F9013197F1F75A
:100440000197D9F71F910F91089586EA90E00E94D5
:1004500072010E94B90188E893E124E630E0F901D5
:100460003197F1F70197D9F781E00895DF92EF9284
:10047000FF920F931F938C017B010E942502D82EBF
:10048000C8010E94F901C7010E94E701DD2019F4AB
:1004900080E090E007C090E0882309F491E081E0DB
:1004A0009827892F1F910F91FF90EF90DF9008956B
:1004B00081EE90E00E9472010E94B90120E030E0DC
:1004C00044E650E00AC0FA013197F1F70197D9F7F5
:1004D0002F5F3F4F2830310519F080E395E7F3CFC8
:1004E000089589E190E00E942E0188E893E124E6D6
:1004F00030E0F9013197F1F70197D9F78AEE90E0F2
:100500000E9472010E94B90188E893E124E630E07C
:10051000F9013197F1F70197D9F781E008950E9429
:10052000A2010E9471020E94580208950F931F9326
:10053000182F092FF8942DE331E08BE591E0412F3E
:10054000502FBC01C9010E94FF0280915B01412F25
:10055000502F60E070E090E00E94080378941F91B3
:100560000F910895CF93DF93C0E0D0E00E94430144
:1005700021E080309207D1F38D3019F42097B1F348
:1005800008C08A3099F3FE01E55AFE4F8083219618
:10059000EDCFCE010E9496028DE391E0DF91CF91E5
:1005A00008950F931F938C0160EB70E089E791E051
:1005B0000E940F0380939701B80189E791E00E94A0
:1005C0000F038093970164EA70E089E791E00E944D
:1005D0000F038093970189E791E00E9472010E94C6
:1005E000B90188E893E124E630E0F9013197F1F7A9
:1005F0000197D9F70E94B2021F910F910895FB0154
:10060000DC0102C001900D9241505040D8F708958E
:10061000DC0101C06D9341505040E0F70895FB01AB
:10062000DC010D900020E9F7119701900D92002058
:08063000E1F70895F894FFCFF3
:10063800417474656E74696F6E2120536F6D656FB8
:100648006E652063726F73736564207468652061DA
:1006580072656121002B33373534343737343730FE
:10066800323400415444202B200041542B434D4741
:10067800533D2200220041542B434D47463D310053
:1006880041542B435042463D22004F4B00455252A5
:100698004F52002B435245473A20302C31002B4310
:1006A8005245473A20302C32002B434D47533A20CD
:1006B8000041542B435245473F0041542B49505267
:0606C8003D393630300020
:00000001FF
